:020000040800F2
:10000000000800203D0300085D290008552900086C
:1000100059290008ED1500080D2B0008000000000C
:10002000000000000000000000000000652900083A
:10003000F115000800000000612900086929000886
:100040005703000857030008570300085703000828
:100050005703000857030008570300085703000818
:100060005703000857030008570300085703000808
:1000700057030008570300085703000857030008F8
:1000800057030008570300085703000857030008E8
:1000900057030008570300085703000857030008D8
:1000A00057030008570300085703000857030008C8
:1000B00057030008570300085703000857030008B8
:1000C00057030008570300085703000857030008A8
:1000D0005703000857030008570300085703000898
:1000E0005703000857030008570300085703000888
:1000F0005703000857030008570300085703000878
:100100005703000857030008570300085703000867
:100110005703000857030008570300085703000857
:100120005703000857030008570300085703000847
:1001300057030008000000000000000057030008FB
:100140005703000857030008570300085703000827
:100150005703000857030008570300085703000817
:100160005703000857030008570300085703000807
:100170005703000857030008570300080000000059
:10018000000000005703000800000000000000000D
:10019000570300080000000000000000570300089B
:1001A00000000000000000000000000057030008ED
:1001B00057030008570300085703000857030008B7
:1001C0005703000800F002F800F0A8F814A696E81B
:1001D000000CB244B344DA4501D100F09FF8BAE80C
:1001E0000F000FA696E83000A5EB040504EB060708
:1001F000AAEB0704A7F101074FEA15154FEA3414DB
:10020000A4F10104AC4201D300F088F813F0010F0F
:1002100018BFFB1A43F0010300F001F8DBE71847B1
:100220003443000054430000103A24BF78C878C11A
:10023000FAD8520724BF30C830C144BF04680C60EC
:1002400070470000704700000023002400250026AE
:10025000103A28BF78C1FBD8520728BF30C148BF29
:100260000B6070476E2900F0FB81702900F03D8320
:10027000662903F0AC87652903F0A987672903F095
:10028000A687612903F0A58703681B0A28BF41F0F0
:100290008001692900F0A881642900F0A5817529F1
:1002A00000F0A2816F2900F0CB82782900F0098349
:1002B000E92900F06582E42900F06282F52900F066
:1002C0005F82EF2900F0C882F82900F008830368F4
:1002D000DB0928BF41F08001632901F009807329FF
:1002E00001F00E80E32901F01980F32901F01E804E
:1002F000002070471FB503F05DFF01F06DF80400AA
:100300000020002103F040FF401C6060002000211D
:1003100003F024FFE0601FBD10B510BD01F02EF802
:100320001146FFF7E7FF03F011FA01F00BF903B4F0
:10033000FFF7F2FF03BC01F051F9000009488047C4
:1003400009480047FEE7FEE7FEE7FEE7FEE7FEE7B7
:10035000FEE7FEE7FEE7FEE704480549054A064BCF
:1003600070470000112A0008C501000800020020A3
:1003700000080020000400200004002053EA020CC2
:1003800000F069802DE9F04B4FF00006002B1FBFF5
:10039000B3FA83F503FA05F424FA05F65E4012BFBA
:1003A0001643B2FA82F502FA05F4C5F120051EBF24
:1003B00022FA05FC44EA0C04203556EA044C4FEAC4
:1003C000144418BF641C4FF000084FF0000990421D
:1003D00071EB030C39D3002919BFB1FA81F701FA87
:1003E00007F6B0FA80F700FA07F6C7F120071EBF3C
:1003F00020FA07FC46EA0C062037B6FBF4FCA7EB14
:100400000507103F07F01F0BCBF120062CFA06F66C
:100410000CFA0BFB44BFB3460026202FA4BF5E4658
:100420004FF0000B5BEA060C08BF4FF0010B19EB15
:100430000B0948EB0608ABFB027C06FB02CC0BFB6E
:1004400003CCC01B71EB0C01C1E70B4602464146D1
:100450004846BDE8F08B13B5084318BF4FF0FF3096
:100460000146AFF30080BDE81C4070471CB50C4648
:10047000064B7B4469460090204600F00AF904468A
:100480000020694600F018F920461CBD4302000018
:1004900010B5431C02E010F8011B71B18107FAD1BD
:1004A0004FF0013202C88C1A8C4314EAC211F9D001
:1004B000C01A0A0603D0C01E10BDC01A10BD0A041F
:1004C00001D0801E10BD0902FCD0401E10BD4FF0AF
:1004D000000200B5134694469646203922BFA0E894
:1004E0000C50A0E80C50B1F12001BFF4F7AF0907A0
:1004F00028BFA0E80C5048BF0CC05DF804EB890091
:1005000028BF40F8042B08BF704748BF20F8022BD3
:1005100011F0804F18BF00F8012B704770477047EB
:10052000704770B5044685690068C10601D530265C
:1005300000E02026C00707D070BDD4E90121304675
:100540009047206A401C20626D1EF6D570BD70B5C4
:10055000044685690078C00707D170BDD4E9012140
:1005600020209047206A401C20626D1EF6D570BD89
:1005700009684A0501D540B27047C905FCD500B2EB
:10058000704709684A0501D5C0B27047C905FCD556
:1005900080B2704770B50C460546012A05D0287810
:1005A000800600D5EA69002302E0012305E05B1C18
:1005B000934202D2E05C0028F9D1A869E618C01A7B
:1005C000A861286A184428622846FFF7AAFF04E0B9
:1005D000D5E9012114F8010B9047B442F8D328461D
:1005E000FFF7B5FF70BD00002DE9F041064600247D
:1005F00010687529314616A510D0FFF7B9FF0028FD
:1006000002DA404213A507E031688A0701D512A536
:1006100002E0490704D511A5012401E0FFF7B1FF6D
:1006200000210A2206F1240709E0B0FBF2FCB0FB2E
:10063000F2F302FB1C00303078541846491C0028A5
:10064000F3D123462A463046BDE8F04100F061BAB6
:10065000000000002D0000002B0000002000000022
:1006600011680268006A530501D508700AE0D305D5
:1006700001D5088006E0130603D5C217C1E90002C0
:1006800000E008600120704701694A1C0261087897
:10069000704700B58FB0CDE90131002105910549C2
:1006A0007944CDE903101146684600F029F90FB0EE
:1006B00000BD0000E5FFFFFF0A6802F8010B0A60B9
:1006C000704700002DE9FF5F15468A460446DFF8B3
:1006D000AC80F8440027D8E900103E46CDE9001070
:1006E00010E03AF816106A4602A800F023FE411CFA
:1006F00007D02178890603D5E269391891420DD8CF
:100700000744761C2078800602D5E069B84205DDF2
:10071000AE42E6DB3AF816000028E2D1A069C01B21
:10072000A0612046FFF7FDFED8E90010CDE90010DA
:10073000002017E03AF818106A4602A800F0FAFD07
:10074000B0F1FF3F81460BD000250DF1080B05E00D
:10075000D4E901211BF8050090476D1C4D45F7D3E6
:1007600008F10100B0428046E4DB206A3844206290
:100770002046FFF7ECFEBDE8FF9F0000023B0000B3
:100780002DE9F0418046D21D22F007020025D2E972
:100790000002F52915A614D0011E72F1000106DA37
:1007A0000023D0EB030063EB020211A608E0D8F8A7
:1007B00000108B0701D50FA602E0490701D50EA650
:1007C00001251146002408F1240704E000F05CF93B
:1007D00030323A55641C50EA0102F7D12B463246BA
:1007E00021464046BDE8F04100F093B9000000000A
:1007F0002D0000002B0000002000000030B400217C
:1008000000F1240408E002F00705D208303542EA7E
:100810004372DB086554491C52EA0305F3D10468AE
:10082000002310A2250708D504F020040C4304D0AF
:10083000C46901230CA2641EC46130BC00F069B914
:1008400010B5044621461068FFF79BFE024620467D
:10085000BDE810400023D1E7D21D22F00701D1E905
:100860000023CBE70000000030000000F0B40D468C
:100870000188090502D5214C7C4402E01F4C7C44D0
:100880000E34002100F1240608E002F00F071209DF
:10089000E75D42EA03721B097754491C52EA0307D9
:1008A000F3D102780023120704D5702D06D009B1C8
:1008B000022311342246F0BC00F02BB9012310347E
:1008C000F8E770B504460D4621461068FFF759FE5B
:1008D000024629462046BDE870400023C6E7D21DE7
:1008E00022F00703D3E90023C0E70368126843F04E
:1008F000200303600823C3610023B7E764390000C5
:100900002DE9F05F894604464FF0000ADFF874B124
:10091000FB44C0F820A02046E1688847002874D036
:10092000252806D0D4E901219047206A401C206286
:10093000F1E700265F462046E16888472028054603
:1009400007DB312D05D2781910F8200C08B10643C9
:10095000F1E7B00701D526F00406C4F81CA0002773
:10096000C4F818A02A2D09D0284603F0EFFB38B3AD
:1009700004EB8708303DC8F8185019E059F8041BFB
:10098000204604EB87029161E1688847012F054604
:1009900018D1E069002820DA26F020061DE0D8F8FA
:1009A000180000EB800005EB40003038C8F8180054
:1009B0002046E1688847054603F0C8FB0028EED1D1
:1009C000012F0AD02E2D08D12046E16888477F1CD0
:1009D0000546022F46F02006C4DBA069002803DA92
:1009E000404246F00106A061F00701D026F0100653
:1009F0006C2D0BD0682D09D04C2D39D06A2D35D0F7
:100A0000742D35D07A2D33D016E038E0E1682F46CA
:100A100020468847B842054609D16C2F26D04FF4AE
:100A20008060E168064320468847054604E06C2F55
:100A30001AD04FF4807006430DB3A5F14100192878
:100A400002D8203546F400664A46294620462660EC
:100A50004E46FFF707FC80B101280BD0F61D26F0AB
:100A6000070000F1080956E74020E4E78020D8E7B6
:100A70000020D6E706F104094DE7284652E7206A30
:100A8000BDE8F09FF438000030B5B0F10A0271F112
:100A900000034FEA900E4EEA817EB0EB0E0061EB50
:100AA00091014FEA101E4EEA017E10EB0E0041EB61
:100AB00011114FEA102E4EEA016E10EB0E0041EBC1
:100AC00011214FEA104E4EEA014E10EB0E0041EBA1
:100AD0001141401841F100014FEAD00040EA417055
:100AE0004FEAD1014FEA810444EA907410EB80058B
:100AF00044EB01046D1944EB0404521BA3414FF075
:100B0000000348BF0A3200D530BD401C41F100014E
:100B100030BD2DE9F0470D4699469246044600F156
:100B200024080168880604D5E06921F010012160DD
:100B300000E00120A84201DD471B00E00027A16979
:100B40007A1902EB0900081AA0612078C00602D4C5
:100B50002046FFF7E6FC002608E0D4E901211AF858
:100B600006009047206A401C761C20624E45F4DB4C
:100B70002078C0060AD52046FFF7D3FC06E0D4E96A
:100B8000012130209047206A401C2062381EA7F1C6
:100B90000107F4DC07E0D4E9012118F805009047CB
:100BA000206A401C2062281EA5F10105F3DC2046C6
:100BB000FFF7CDFC2078000602D50220BDE8F087C3
:100BC0000120FBE72DE9FF4F0C461E464FF0FF3793
:100BD0008BB0D2E90001DDF860800A908A46C1F34B
:100BE0000A5505B93D46002108464FF00000BAF10C
:100BF000000F00F4400005DA00EB80004FF44001E4
:100C000001EA50004FEA9059B9F1010F00DDB946F1
:100C10000A9850EA4A000ED044F61050A5F2FF356B
:100C200045432F14B8F1000F1ED07542291E1EDD5A
:100C3000C9F100021CE0B8F1010F4FF0000001D033
:100C4000302103E0F24305E02154401CB042FBDBBD
:100C500030460022002121540B99C1F80880C1E9D7
:100C600000200FB0BDE8F08FBD1B6D1CDEE74A46CB
:100C700000DA694206A800F0F3FB06AB93E8070030
:100C800003AB83E8070050460A9902F07EFE8DE828
:100C90000700A0F500501F3800900398002D0ADDD2
:100CA00042F21F014A460844002303A90390684604
:100CB00003F0E8F809E0A0F500504A461F38002389
:100CC00003A90390684603F0F2F88DE807000004DA
:100CD000000C03D04FF0FF30410800E01046B8F19F
:100CE000000F03D00022009215461EE0751E05D4A9
:100CF000FFF7CAFE303262556D1EF9D5B3460122A8
:100D0000084302D000227F1C04E02078302801D163
:100D100000227F1E002A099784D01DE0112D07DADA
:100D2000FFF7B2FE303262556D1C50EA0102F5D178
:100D3000084302D00098C8B10EE00021681E05E00B
:100D4000235C625C63542254401E491C8142F7DBE1
:100D5000AB46A81B401E0990002004F80B000B981E
:100D6000099AC0F80880C0E9002B7AE711264FF0F5
:100D7000000857E72DE9F04F88460446D21D22F0BF
:100D8000070191B0D1E90001CDE90A0103F0C6F9EC
:100D900002460B98C00F01D02D2007E02068810784
:100DA00001D52B2002E0202101EAC000032A09908E
:100DB00001D0072A05DB03464146204600F010FB20
:100DC0000BE12078800601D5E06900E00620B8F14B
:100DD000650F814606D0B8F1660F18D0B8F1670FDD
:100DE00070D131E00020B9F1110F009001DB112327
:100DF00001E009F101030AAA01A90CA8FFF7E2FE2C
:100E0000DDE90C70002609F10105834647E0012069
:100E10004B4600904FF000470AAA01A90CA8FFF723
:100E2000D1FEDDE90DB00C995D46002610B909F13F
:100E300001000D18B9EB050003D4C0F1FF3609F12C
:100E40000105A5EB09002BE0B9F1010F01DA4FF024
:100E500001090020B9F1110F0090484601DD11236E
:100E600000E003460AAA01A90CA8FFF7ABFEDDE9E2
:100E70000C704D4600268346207800070AD4AB4507
:100E800000DA5D4601A8012D04DD411911F8011CAD
:100E9000302907D04F4502DA17F1040F04DA012098
:100EA00082460FE06D1EEEE7002F02DCED1B3E4494
:100EB00003E0781CA84200DD7D1CB81B00F1010A8C
:100EC0004FF000472078000703D4AA4501DB4FF01C
:100ED000FF3A0021B7F1004F0DF143088DF84310A0
:100EE00024D002202B23002F01DA7F422D230A2158
:100EF000021EA0F1010000DC5FB197FBF1FC97FB43
:100F0000F1F201FB1C7C17460CF1300C08F801CD06
:100F1000EEE7A8F1010003702188090501D54521FC
:100F200000E06521A0F1010800F8011C09980FA953
:100F3000A1EB0807FF1D00B10120411901EBEA7088
:100F4000A1693844081A401EA0612078C00602D466
:100F50002046FFF7E6FA099828B1D4E90121904725
:100F6000206A401C20622078C00622D52046FFF768
:100F7000D8FA1EE0002E04DBB34502DD01A8805D37
:100F800000E03020D4E901219047206A401C206213
:100F9000761CAAF101005FEA000A0AD100F01CFAEF
:100FA000C0680168405CD4E901219047206A401C78
:100FB0002062281EA5F10105DCDC07E0D4E901214F
:100FC00018F8010B9047206A401C2062381EA7F1D8
:100FD0000107F3DC2046FFF7BAFA032011B041E61F
:100FE0002DE9F04F04460D46D21D22F0070089B0CE
:100FF000D0E900974846394603F090F80246F80FCA
:1010000001D02D2307E02068810701D52B2302E0C2
:10101000202101EAC0038DF820300BB1012000E04F
:101020000020032A824601D0072A04DB29462046F5
:1010300000F0D6F93FE12078800601D40D2500E0CC
:10104000E569C7F30A560D2D49DA00214FEA175B0F
:1010500008464FF00000002F00F4400007DA00EBD4
:1010600080004FF4400100EBD07001EA6000811570
:10107000012901DD4FF0FF3100224FEA850CBCF160
:10108000180F06D31346ACF118004FF08052C2403F
:1010900003E04FF4801323FA0CF30CF10C0CBCF1B9
:1010A000200F04D3ACF1200C09FA0CF001E007FA90
:1010B0000CF000294FF0004801DD18B90FE00ED107
:1010C00040450CD319EB02095F4121B9404502D1DB
:1010D0009F4329EA0209BBEB175F00D0761C2088EA
:1010E000000502D57B48784402E07A4878441938F4
:1010F00008AA302302F80A30037C0AF10101002E0D
:101100000AF1020A53546A4602DC4FF0300101E052
:101110004FF031014FF001088DF8001002D0A6F217
:10112000FF3603E059EA470100D06B4E002D02DC88
:101130002178090704D54FF002082E218DF80110FF
:10114000C44600210BE0C7F303433F01C35C491CC5
:101150006D1E02F80830052908F1010801DA002D9A
:10116000F1DC00210CE000EB1973491C1B786D1EAB
:10117000082902F808304FEA091908F1010801DAD4
:10118000002DF0DC21688B0602D516E0A8F10108DD
:10119000E04505DD02EB080313F8013C302BF5D0E8
:1011A000B8F1000F09DD02EB080313F8013C2E2B08
:1011B00003D1090701D4A8F10108002D05DD3E2166
:1011C00002F808106D1E08F10108407C002E02F89C
:1011D000080008F1010804DA2D20764202F8080020
:1011E00002E02B2002F808000A214FF47A708642B0
:1011F00008F101080BDB96FBF0F3303302F80830FE
:1012000096FBF0F308F1010800FB136601E0642E81
:101210000CDB642096FBF0F3303302F8083096FBC9
:10122000F0F308F1010800FB136601E00A2E06DB6B
:1012300096FBF1F0303002F8080008F1010896FB47
:10124000F1F001FB1060303002F80800A16908F1EC
:10125000010808EB050202EB0A00081AA0612078D9
:10126000C00602D42046FFF75CF9216A08AE01EB04
:101270000A00206204E0D4E9012116F8010B90472E
:10128000BAF1010AF7D22078C00602D52046FFF74E
:1012900048F96E4609E016F8010B3E280FD0D4E954
:1012A00001219047206A401C2062B8F10108F2D267
:1012B0002046FFF74CF909B00320BDE8F08F206A03
:1012C0002844206203E0D4E90121302090476D1EBC
:1012D000EBD3F8E74231000002FCFFFF10B5436991
:1012E00013B1AFF3008001E0FFF754F9012010BD06
:1012F000127800F124010A7000224A700122EDE701
:1013000011684FF0FF32E9E710B5436913B1AFF34D
:10131000008001E0FFF7D6F9012010BD128800F12E
:10132000240182840022C2840122EDE711684FF07B
:10133000FF32E9E72DE9F04116460C46054600F07C
:1013400043F8036893F80101012807D0FF2C12D855
:10135000185D80B101202C70BDE8F081D3F8070141
:101360003246214603F20713C7182846BC46BDE89B
:10137000F041002360474FF0FF30EDE7754600F085
:10138000EBF8AE4605006946534620F00700854657
:1013900018B020B5FEF7E0FFBDE820404FF0000692
:1013A0004FF000074FF000084FF0000BAC46ACE8E0
:1013B000C009ACE8C009ACE8C009ACE8C00921F03C
:1013C00007018D467047000010B500F005F8001DBC
:1013D00010BD00BFB52D0000004870473800002048
:1013E0002DE9F0411F46044603260168072A01F44F
:1013F000006004DB08B116A505E016A503E008B1FE
:1014000015A500E015A521F010002060A069C01E00
:10141000A0610FB1401EA0612046FFF782F84FB1D6
:10142000D4E9012138469047206A401C2062C01C44
:10143000206206E0206AFAE7D4E9012115F8010BE1
:101440009047761EF8D22046FFF781F8BDE8F0817C
:101450004E414E006E616E00494E4600696E660058
:101460002DE9F047814616468AB0354878440DC8C4
:101470008DE80D0032487844801C03AC0DC884E828
:101480000D0041F69B300844372190FBF1F290FBB0
:10149000F1F5A5F1800501FB12041B3C02D5644265
:1014A000012000E00020DFF898A080460027FA44E1
:1014B000AAF1BE0A0EE0E0070AD03246684607EB02
:1014C000470101230AEB810102F0F1FC8DE80700DE
:1014D00064107F1C002CEED1194F7F44AE3F19E001
:1014E000E80715D007EB04100DF1180A90E80E007C
:1014F0008AE80E00C068F04201D19819089032467F
:10150000012306A903A802F0D2FC03AB83E807007D
:101510006D10641C002DE3D14FF001033246694683
:10152000B8F1000F03A802D002F0ACFC01E002F019
:10153000BEFCC9E90001C9F808200AB0BDE8F0877F
:101540004C2E000010B50446AFF300802046BDE8E5
:101550001040FEF7ECBE0000004870471800002065
:1015600030B44FF0013C50F8042B51F8043BCCFA56
:1015700052F4D51A20D1FCB950F8042B51F8043B91
:10158000CCFA52F4D51A17D1B4B950F8042B51F84B
:10159000043BCCFA52F4D51A0ED16CB950F8042B96
:1015A00051F8043BCCFA52F4D51A05D1002CDAD00C
:1015B00030BC4FF00000704729BAB1FA81F111F048
:1015C0001801D1F120008440F2D1CA40CB4012F082
:1015D000FF0213F0FF0330BCD01A704701491820F6
:1015E000ABBEFEE72600020070470000FEE70000E9
:1015F00070470000F0B581B040F2D817044643F6BA
:101600000C46C2F200070020C4F20206F86100F0A6
:101610004FFB3168C9031DD43068C0071CBF0120CF
:101620003060306810F4F97F32D03068C00633D4AF
:101630003068800639D4306840063FD430680006F0
:1016400045D43068C0054BD43068800752D401209F
:1016500001B0F0BDC4B10546601C10D13068C003B4
:10166000DAD53068C00344BF30685FEAC030D3D5F4
:101670003068C003F2D4CFE73068C003CCD500F0A7
:1016800017FB401BA042F7D9032001B0F0BD00BFFB
:10169000002001B0F0BD00BFF86940F01000F86113
:1016A0001020306030688006C5D5F86940F0080029
:1016B000F8612020306030684006BFD5F86940F0FE
:1016C0000400F8614020306030680006B9D5F86940
:1016D00040F00200F861802030603068C005B3D56A
:1016E000F86940F00100F8614FF4807030603068B4
:1016F0008007ACD5F86940F02000F8610220306026
:10170000012001B0F0BD0000B0B5864602208EF881
:101710000500DEF8000042B302F0030C94084FF01D
:10172000000210D0A1F11003A2EB840453F8105F63
:10173000043A05605D68944205609D680560DD6857
:101740000560F3D15242BCF1000F0ED051F82230A7
:10175000BCF1010F036008D001EB82014A68BCF1C3
:10176000020F02601CBF89680160006801218EF8C9
:101770000510B0BD002804BF01207047417919B1A0
:10178000012141710020704710B50021017104460C
:1017900000F008F82046BDE810400121417100200A
:1017A0007047000043F63001C4F202010068A1F561
:1017B0000362904218BF704781B000200090086813
:1017C00040F480500860086800F480500090009851
:1017D00001B070472DE9F04381B040F2D818C2F251
:1017E000000898F81820012A04D1022001B0BDE8B1
:1017F000F08300BF0546012088F818004CF25030F5
:101800008946FFF7F7FE28B1002188F8181001B0CB
:10181000BDE8F0834FF0FF30C9F80000286843F6B8
:1018200010470128C4F202071CD128693968000258
:1018300021F440713960396880B241F004013960A7
:101840003968084340F4803038604CF25030FFF77C
:10185000D1FE396821F00401396057F8101C890560
:101860003BD452E0D5E902603044864230D2F000E9
:10187000841C00BF28694FF44072C1B20329396843
:101880004FEA002021F440713960396838BF82B2D4
:1018900041EA02003860386820F0F80038603868A3
:1018A00020433860386840F4803038604CF2503063
:1018B000FFF7A0FE3968002821F0FA01396047D10E
:1018C000D5E9020101360844864204F10804D1D367
:1018D000002057F8101C890517D557F8101C21F463
:1018E000007147F8101C57F8101C41F4006147F8CC
:1018F000101C57F8101C21F4006147F8101C57F811
:10190000101C41F4007147F8101C57F8101C4905D1
:101910007FF57AAF57F8101C21F4806147F8101C4E
:1019200057F8101C41F4805147F8101C57F8101C50
:1019300021F4805147F8101C57F8101C41F48061C5
:1019400047F8101C002188F8181001B0BDE8F0839A
:10195000C9F8006057F8101C8905BED4D5E700000F
:1019600043F614410F22C4F2020102604A888260E9
:101970004A78CC2A02D1CC2204E000BF4A78AA2AB5
:1019800018BF552202610A6802F0E0020276097867
:1019900001F00C014161704743F61041C4F20201AD
:1019A000086840F0004200200A60704743F6144186
:1019B000C4F20201086840F0010200200A6070478A
:1019C00043F60840C4F20200C168C90704BF012001
:1019D000704742F63B21C0F61901016046F67F616F
:1019E000C4F65D4101600020704700002DE9F04120
:1019F00040F2D814C2F20004277E012F04BF022057
:101A0000BDE8F0810546012020764CF25030984622
:101A10000F461646FFF7EEFD20B100212176BDE806
:101A2000F08100BF2A46022D43F61045C4F202059C
:101A30001ED0012A314638460CD03ABB2A6822F41F
:101A400040722A602A682A602A6842F001022A60ED
:101A500001702CE02A6822F440722A602A6842F45D
:101A600080722A602A6842F001022A6001801EE02A
:101A7000286820F440702860286840F400702860CE
:101A8000286840F0010028603E6010E02A6822F4D7
:101A900040722A602A6842F440722A602A6842F042
:101AA00001022A600160BFF36F8FC0F804804CF21E
:101AB0005030FFF79FFD296821F0010129600021C6
:101AC0002176BDE8F081000043F60440C4F2020034
:101AD000C168B1F1FF3FC4BF0020704740F223113D
:101AE000C4F26751016048F6AB11CCF6EF510160CA
:101AF000C068C00F704700002DE9F04F83B000F1BF
:101B0000200200F13E4741F60005009207F1FF7701
:101B1000C4F2020507224FEAB726A84208BF0622F0
:101B200000254FF000084FF00009062E38BF4FEA9D
:101B3000B72201920AE000BF09F1010908F1020889
:101B4000B9F1100F05F1040500F0A2800F68012221
:101B500002FA09FE17EA0E0AEED0D1F804C00322F9
:101B60000CF003077E1E02FA08F4012E6FEA040B44
:101B700012D88468CE6804EA0B0406FA08F63443E7
:101B80008460446824EA0E06CCF3001404FA09F4D5
:101B90002643466004E000BF032F01D103271EE067
:101BA000C6688C6806EA0B0604FA08F42643022F7E
:101BB000C66014D16FF00302009E02EA590756F87E
:101BC00007C005F01C040F220B69A2402CEA020298
:101BD000A3401A43F251D1F804C00CF00307026885
:101BE00007FA08F302EA0B021A431CF4403F0260B2
:101BF000A2D0002243F644030292C4F202031A6800
:101C000043F6004442F480421A601A68C4F20104A8
:101C100002F480420292029A29F003024FF6084C25
:101C20002244CFF6FF7C52F80C3005F00C070F264B
:101C3000BE40B343019E06FA07F73B4342F80C301F
:101C4000A2684B6842EA0A0743F60C4CDE0258BF12
:101C500022EA0A07A760C4F2010CDCF800209E0209
:101C600042EA0A0758BF22EA0A07CCF80070626805
:101C70009E0342EA0A0758BF22EA0A076760226801
:101C8000DB0342EA0A0758BF22EA0A07276053E744
:101C900003B0BDE8F08F00000069084018BF0120C4
:101CA00070470000002A08BF0904816170470000E6
:101CB00040F2F810C2F200000068704740F20000E5
:101CC00040F2F811C2F20000C2F2000100780A6886
:101CD000104408607047000080B543F60040C4F22D
:101CE0000200016841F400710160016841F4806103
:101CF0000160016841F480710160032000F076F812
:101D0000002000F005F800F027F8002080BD00005A
:101D100070B540F20006C2F2000640F208013278C7
:101D2000C2F200014FF47A730968B3FBF2F2044681
:101D3000B1FBF2F1084600F083FB0F2C4FF00105D8
:101D400008D838B94FF0FF3021460022002500F0B6
:101D500021F87460284670BD82B0002043F640012F
:101D60000190C4F202014A6842F480424A604A6823
:101D700002F480420192019A0090086840F080507D
:101D80000860086800F0805000900098072002B0BA
:101D900000F02CB810B54EF60C5CCEF2000CDCF85E
:101DA0000030C3F3022E8EF00704042C28BF042455
:101DB000BEF103034FF0FF3E0EFA04F438BF0023D8
:101DC000A14399400EFA03F39A43114300F00F0226
:101DD00000F160430901043A03F5644362440028BA
:101DE00048BF02F10C03197010BD00004EF60C51F3
:101DF000CEF200010A684FF6FF031A4060F30A2290
:101E000042F0806040F0FD7008607047002804BF19
:101E1000012070472DE9F04143F60808C4F202089A
:101E20000446D8F8F8030D4600F00F00814207D9A8
:101E300088F8F853D8F8F80300F00F00A84277D1DB
:101E40002068810717D5410705D5D8F8001041F45F
:101E5000E051C8F80010010705D5D8F8001041F48A
:101E60006041C8F80010D8F80010A26821F0F00115
:101E70001143C8F80010C00740D1D8F8F80300F0AB
:101E80000F00854207D288F8F853D8F8F80300F01D
:101E90000F00A8424CD12068410707D5D8F80010A0
:101EA000E26821F4E0511143C8F80010000708D59A
:101EB000D8F80000216920F4604040EAC100C8F869
:101EC000000000F07DF8D8F8001044F2D422C1F3ED
:101ED0000311C0F60002515C40F2080220FA01F141
:101EE00040F20400C2F200000068C2F20002116079
:101EF000FFF70EFF0020BDE8F08100BF6068811E83
:101F0000022907D258F8081C89015CBF0120BDE8EE
:101F1000F08111E0012807D158F8081C89035CBF43
:101F20000120BDE8F08107E058F8081C890703D4B8
:101F30000120BDE8F08100BFD8F8001021F00301B6
:101F40000843C8F80000FFF7B3FE064641F28837A1
:101F5000D8F80000616800F00C00B0EB810F8CD065
:101F6000FFF7A6FE801BB842F2D90320BDE8F0813E
:101F700040F2080043F60801C2F20000C4F2020178
:101F80000068096844F2E422C1F38221C0F600022D
:101F9000515CC8407047000040F2080043F6080159
:101FA000C2F20000C4F202010068096844F2E422AF
:101FB000C1F34231C0F60002515CC84070470000D6
:101FC00010B543F60404C4F202046068C0F3810152
:101FD00042F20040C0F2F400DFE801F042020818CB
:101FE00041F20020C0F27A0010BD00BF216801F06C
:101FF0003F02216823684902C3F3881116D4A1FB6C
:1020000000010023FEF7BAF917E000BF216801F0D4
:102010003F02216823684902C3F3881114D4A1FB4D
:1020200000010023FEF7AAF915E000BF41F20020ED
:10203000C0F27A004843B0FBF2F021680222C1F3FB
:10204000014102EB410109E041F20020C0F27A00B7
:102050004843B0FBF2F02168C1F30271B0FBF1F02C
:1020600010BD0000002804BF012070472DE9F04199
:1020700082B00446007843F60006C007C4F20206A8
:102080000CD0B06800F00C00042840F08980306863
:10209000800303D56068002800F050812078800715
:1020A00023D5B06810F00C0F11D0B06800F00C0010
:1020B000082802D17068400209D5B06800F00C0011
:1020C0000C2840F09F807068400200F19B803068CF
:1020D000800703D5E068012840F03081306821692D
:1020E00020F0F80040EAC10030602078000713D4E7
:1020F000207840072AD4A569002D00F01A81B06825
:1021000000F00C00082840F0AB80012D40F0E88082
:10211000012002B0BDE8F0816069002840F20000B3
:10212000C4F2472000F088800121C0F8801EFFF72C
:10213000BFFD0546706F8007DAD4FFF7B9FD401B7D
:102140000228F7D9032002B0BDE8F081306C5FEAC5
:10215000C0080AD400200190306C40F080503064F8
:10216000306C00F080500190019847F20007C4F2F3
:1021700000073868C00537D4386840F4807038608C
:10218000FFF796FD054600BF3868C0052CD4FFF761
:102190008FFD401B0228F7D9032002B0BDE8F08173
:1021A000B06800F00C00082803D1706840023FF5C9
:1021B0006EAFB06800F00C000C2803D170684002CC
:1021C0003FF565AF61683068B1F5803F07D0B1F584
:1021D000A02F40F0CB8040F480203060306840F485
:1021E00080303060CBE000BFA168306F012905D09E
:1021F000052957D140F004003067306F40F00100EE
:10220000306759E0E068002800F09C800020C4F2AC
:10221000472001210160FFF74BFD0546306880072C
:102220003FF55CAFFFF744FD401B02284FF0030071
:10223000F4D902B0BDE8F0810021C0F8801EFFF79C
:1022400037FD0546706F80077FF552AFFFF730FD11
:10225000401B0228F6D9032002B0BDE8F08100BF80
:102260000027C4F2472700203866FFF721FD022D22
:1022700005460BD13068800140F19280FFF718FDD0
:10228000401B02284FF00300F4D9D2E730688001E8
:102290004FD5FFF70DFD401B02284FF00300F5D985
:1022A000C7E700BF20F001003067306F002920F041
:1022B0000400306700F09880FFF7FAFC054641F211
:1022C000883700BF306F800700F1A080FFF7F0FC77
:1022D000401BB842F6D9032002B0BDE8F08100BF30
:1022E0007068E16900F480028A4227D1216A00F017
:1022F0003F028A4222D147F6C071626A0140B1EBC7
:10230000821F1BD1A16A4FF6FF73C903994300F4E2
:102310004032A1F580318A4210D1E16A00F070624A
:10232000B2EB016F0AD1216B00F0E040B0EB017F0E
:1023300004D1002002B0BDE8F08100BF012002B04E
:10234000BDE8F0810020C4F2472000210160FFF7C2
:10235000AFFC0546306880077FF5C7AEFFF7A8FCE5
:10236000401B02284FF00300F4D962E720F48030CC
:1023700030603068002920F48020306050D0FFF7B2
:1023800097FC0546306880033FF588AEFFF790FC68
:10239000401B6428F6D9032002B0BDE8F08100BFDD
:1023A00004F11C052FCD246B084340EA8210D903A9
:1023B0004FF6FF729143A1F5803140EA0560084372
:1023C00040EA0470706001203866FFF771FC044633
:1023D00030688001ADD4FFF76BFC001B02284FF082
:1023E0000300F5D925E700BFFFF762FC054641F27F
:1023F000883700BF306F800708D5FFF759FC401BB6
:10240000B8424FF00300F5D913E700BFB8F1000F51
:102410003FF571AE306C20F0805030646BE600BF49
:10242000FFF746FC054600BF306880037FF536AEF7
:10243000FFF73EFC401B64284FF00300F4D9F8E698
:10244000411E0020B0EB116F1CBF012070474EF2FF
:102450001002CEF2000251604EF62351CEF200017E
:10246000F0230B700721906011607047002804BFB3
:102470000120704710B5044690F8410028B90020AB
:1024800084F84000204600F021F8242084F8410020
:102490002068C16821F40051C160204600F0C2FAF2
:1024A0002068016921F490410161416921F02A010C
:1024B0004161C16841F40051C16000202021606485
:1024C00084F8411084F84210606310BD80B586B076
:1024D000006844F60002C4F2000200219042CDE9F7
:1024E0000411CDE90211019124D044F20041C4F25B
:1024F0000001884249D1002043F630010090C4F227
:1025000002010A6942F400320A610A6902F40032E7
:102510000092009A0090086840F001000860086886
:102520000C2100F00100009000980020C4F202008D
:102530001FE000BF43F630000091C4F202000269C0
:1025400042F480220261026902F480220092009A21
:102550000091016841F00401016000684FF440619E
:1025600000F00400009000980020C4F2020000F582
:102570000060019102210291002103910321049145
:102580000721059101A9FFF7B7FA06B080BD000049
:102590002DE9F04381B0044690F84200202809D18B
:1025A000884600294FF0010018BF002A06D101B06B
:1025B000BDE8F083022001B0BDE8F08300202221B5
:1025C0001D46606484F8421020631646FFF770FBD6
:1025D000A685E685A1680746B1F5805F02D120692E
:1025E000002851D046464FF00008E08D00284FD01B
:1025F00005F101090CE000BF406800266FF35F2081
:1026000028F8020BE08D0138E085E08D00283FD0EE
:1026100020680168890617D4B9F1000F22D0002D77
:1026200000F0CA80FFF744FBC01BA84200F2BC8048
:102630002068C168490744BF01685FEA01712FD46F
:1026400001688906EED500BF002ED5D0A168B1F58E
:10265000805F15D009B9216991B1406800F07F0011
:102660000FE000BF01688906EED4016889065CBFEF
:1026700001685FEA8161E7D401688906F2D5E3E782
:10268000406806F8010BBDE70026E08D0028AFD1B9
:102690000020202184F8421001B0BDE8F08300BF83
:1026A000002100910168009140680090009800BFEF
:1026B000206850E8030F216820F4907041E803027D
:1026C000BAB3206850E8030F216820F4907041E805
:1026D000030272B3206850E8030F216820F4907061
:1026E00041E803022AB3206850E8030F216820F470
:1026F000907041E80302002ADAD11AE0206850E81D
:10270000050F216820F0010041E80502DAB12068D8
:1027100050E8050F216820F0010041E8050292B160
:10272000206850E8050F216820F0010041E805020B
:102730004AB1206850E8050F216820F0010041E807
:102740000502002ADAD1206B012824D1206850E844
:10275000030F216820F0100041E80302DAB120687D
:1027600050E8030F216820F0100041E8030292B105
:10277000206850E8030F216820F0100041E80302B0
:102780004AB1206850E8030F216820F0100041E8AA
:102790000302002ADAD1202084F842000020082118
:1027A0002063616484F840000320202184F84210F3
:1027B00001B0BDE8F08300BFFFF77AFAF4E700004C
:1027C0002DE9F04381B0044690F84100202809D15A
:1027D00000294FF0010018BF002A07D101B0BDE861
:1027E000F08300BF022001B0BDE8F08300206064E8
:1027F00021201D460E4684F841001746FFF758FA7F
:10280000A784E784A1688146B1F5805F02D1206981
:1028100000285DD037460020E28C2168002A5DD078
:102820006A1C24D0002D4AD0804600BF08680006EC
:1028300008D4FFF73DFAA0EB0900A8427AD8216836
:10284000C868F3E717B117F8010B04E038F8020B7A
:1028500000276FF35F204860E08C0138E084E08C53
:102860000028E3D13AE000BF0A68120609D40A68DA
:10287000120606D40A6812065CBF0A685FEA0262A2
:10288000F2D51FB117F8012B05E000BF30F8022B7D
:1028900000276FF35F224A60E28C013AE284E28C07
:1028A000002AE4D11AE000BF30F8022B00276FF3B2
:1028B0005F224A60E28C013AE284E28C72B10A68DB
:1028C000120635D5002FEFD017F8012BF1E700BF26
:1028D00000273046E28C2168002AA1D10868400612
:1028E0001ED42DB3681C14D1086840062AD4086889
:1028F000400627D40868400624D4086840064FF0F4
:102900000000F1D50DE000BF2068C16800684006F6
:1029100018D4FFF7CDF9A0EB0900A842F4D909E0DB
:102920000020202184F8411001B0BDE8F08300BFF1
:10293000FFF7BEF90320202184F8411001B0BDE863
:10294000F08300BF0020202184F8411001B0BDE8D1
:10295000F0830000FEE70000FEE70000FEE7000055
:102960007047000070470000FFF7A8B970B594B039
:1029700007AC20463421FDF7AAFD002543F64000B0
:102980000695CDE90455CDE902550195C4F2020042
:102990000168012241F0805101600068022600F0C8
:1029A00080500190019847F200000195C4F20000A8
:1029B000016862F38F310160006800F440400190CB
:1029C000019810200B900F904FF4A87010900420E5
:1029D000CDE91106204607960A92CDE90D651396BA
:1029E000FFF740FB10B172B6FEE700BF0F20CDE944
:1029F00002064FF48050CDE9050502A80221049596
:102A0000FFF704FA10B172B6FEE700BF14B070BD54
:102A10004EF68850CEF20000016841F4700101606A
:102A200070470000B0B50446006804F108030ECBFF
:102A30000569194325F440552A4302616269E36937
:102A40001143C268194349F20C639A431143C160B0
:102A50004169A26921F4407141F20043114340F4FD
:102A60008062C4F201039A42416103D1FFF794FAF4
:102A700002E000BFFFF77CFAE1694FF69C756368DE
:102A80001922C0F6FF75B1F5004FA0FB02011FD15E
:102A90005A00DB0FFDF772FC48F21F51C5F2EB1133
:102AA000A0FB01235A0905F1805302FB03003223E6
:102AB00003EBC000A0FB01014FF4F87000EA111015
:102AC00000EB0210C1F34211084421688860B0BDD8
:102AD0009A009B0FFDF752FC48F21F51C5F2EB1113
:102AE000A0FB01235A0902FB0500322303EB00106F
:102AF000A0FB0101F02000EA511000EB0210C1F32D
:102B00004311084421688860B0BD0000FEE7000062
:102B10002DE9F04383B049A000F018FF40F2C8004F
:102B2000C2F20000017840F27808421852F8039C83
:102B3000CE1EC2F2000811D040F27804471EC2F245
:102B4000000401AD17F8010F29460190204601222B
:102B5000FEF7DAFD013EF5D101E000BFFF20D8F815
:102B6000001048458A6842F001028A6050D144F260
:102B7000323043F60C45C0F60000C4F2020500F006
:102B8000E5FE40F2A51008F10804ADF809000DF1CA
:102B90000901204602224FF0FF33FFF711FEFEF736
:102BA0000FFF2868C00309D52868C00344BF286800
:102BB0005FEAC03002D52868C003F2D4A86820F0CC
:102BC0000040A860A86840F47F00A860A86840F0B2
:102BD0000200A8602868C00309D52868C00344BF64
:102BE00028685FEAC03002D52868C003F2D4FEF737
:102BF000DDFE00208DF8030044F2EE40C0F6000038
:102C0000002100F0A3FE0DF1030120460DE000BFFE
:102C100044F21330C0F6000000F098FE7F208DF8DB
:102C20000B0008F108000DF10B0101224FF0FF33FA
:102C3000FFF7C6FD03B0BDE8F08300BF424C5F4420
:102C4000454255475F4D53473A626F6F746C6F61F1
:102C50006465725F68616E646C655F6469735F72FE
:102C6000775F70726F746563740A00002DE9F04736
:102C700088B0814600208DF807004FA000F066FE66
:102C800040F2C800C2F20000017840F27808421811
:102C900052F803ACCE1EC2F2000811D040F2780404
:102CA000471EC2F2000403AD17F8010F2946039036
:102CB00020460122FEF728FD013EF5D101E000BFCC
:102CC000FF20D8F8001050458A6842F001028A605F
:102CD0003AD144F232300025C0F60000C4F20205B9
:102CE00000F034FE40F2A51008F10804ADF80C0025
:102CF00003A9204602224FF0FF33FFF761FD99F848
:102D0000021099F8032038A000F020FE2846202168
:102D10000122FEF7C7FF99F80310082922D899F875
:102D20000220501CC0B208281CD8FF2A4FF0010016
:102D30001AD0C2F10803DBB2994238BF0B4600211A
:102D4000CDE9052311E000BF44F21330C0F60000C6
:102D500000F0FCFD7F208DF80C0008F1080003A9AD
:102D600022E000BF04260DE00121CDE90310FEF7AB
:102D7000ABFE0220079003A802A9FEF72BFD064632
:102D8000FEF70AFE2846202100228DF80760FEF794
:102D900089FF9DF8071044F2EE40C0F6000000F0F5
:102DA000D5FD0DF10701204601224FF0FF33FFF75B
:102DB00007FD08B0BDE8F087424C5F4445425547E7
:102DC0005F4D53473A626F6F746C6F616465725FF9
:102DD00068616E646C655F666C6173685F65726183
:102DE00073655F636D640A00424C5F44454255471A
:102DF0005F4D53473A696E697469616C5F736563CF
:102E0000746F72203A20256420206E6F5F6F6673A6
:102E10006563746F72733A2025640A002DE9F047E8
:102E200084B0804600208DF8070001208DF8060050
:102E300044A000F08BFD40F2C800C2F2000001780F
:102E400040F27809421852F803ACCF1EC2F20009D2
:102E500012D040F27805441EC2F2000502AE00BF57
:102E600014F8010F3146029028460122FEF74CFC6F
:102E7000013FF5D101E000BFFF20D9F80010504517
:102E80008A6842F001028A6032D144F23230C0F6E0
:102E9000000000F05BFD40F2A51009F10805ADF857
:102EA0000D000DF10D01284602224FF0FF33FFF710
:102EB00087FCD8F802402DA0214600F047FD04F120
:102EC0006040B0F5003F29D920466FF31200B0F101
:102ED000006F23D0A4F18040A0F51030B0F5805FE2
:102EE0001CD929A000F032FD0DF1060128460CE0A6
:102EF00044F21330C0F6000000F028FD7F208DF86A
:102F00000F0009F108000DF10F0101224FF0FF330E
:102F1000FFF756FC04B0BDE8F08700BF0DF10701D4
:102F2000284601224FF0FF33FFF74AFC44F2EC2021
:102F3000C0F60000013400F009FDA04704B0BDE870
:102F4000F08700BF424C5F44454255475F4D5347B1
:102F50003A626F6F746C6F616465725F68616E6412
:102F60006C655F676F5F636D640A0000424C5F448D
:102F7000454255475F4D53473A474F20616464725D
:102F80003A202523780A0000424C5F4445425547C9
:102F90005F4D53473A474F206164647220696E76F3
:102FA000616C69642021200A000000002DE9F04FC7
:102FB00083B083461BF8068F00205BF8045C8DF815
:102FC000030051A000F0C2FC40F2C800C2F20000B1
:102FD000017840F27806421852F803ACCC1EC2F2D7
:102FE000000613D0A0F1010901AF00BF19F8010FCD
:102FF0003946019030460122FEF786FB013CF5D1AF
:1030000040F27806C2F2000601E000BFFF203168FE
:1030100050458A6842F001028A602FD144F2323072
:10302000C0F6000000F092FC40F2A5100836ADF8A2
:1030300009000DF10901304602224FF0FF33FFF77E
:10304000BFFB3DA0294600F081FC05F16040B0F5D2
:10305000003F21D928466FF31200B0F1006F1BD05A
:10306000A5F18040A0F51030B0F5805F14D93CA0E8
:1030700000F06CFC01208DF8030039E044F21330BD
:10308000C0F6000000F062FC7F208DF80B0006F116
:1030900008000DF10B012EE044F24C400027C0F671
:1030A0000000C4F2020700F051FC38462021012242
:1030B000FEF7F8FDFEF708FDB8F1000F0ED000BFD7
:1030C0001BF8012F002029460023FEF78FFCB8F1E2
:1030D000010805F10105F3D1044600E00024FEF7E4
:1030E0005BFC3846202100228DF80340FEF7DAFD14
:1030F0000DF10301304601224FF0FF33FFF760FB73
:1031000003B0BDE8F08F00BF424C5F4445425547D5
:103110005F4D53473A626F6F746C6F616465725FA5
:1031200068616E646C655F6D656D5F77726974650B
:103130005F636D640A000000424C5F44454255479E
:103140005F4D53473A206D656D2077726974652035
:1031500061646472657373203A202523780A000045
:10316000424C5F44454255475F4D53473A20696E94
:1031700076616C6964206D656D2077726974652075
:10318000616464726573730A000000002DE9F04306
:1031900087B035A000F0DAFB40F2C800C2F20000B0
:1031A000017840F27808421852F8039CCE1EC2F211
:1031B000000811D040F27804471EC2F200046D46A8
:1031C00017F8010F2946009020460122FEF79CFACD
:1031D000013EF5D101E000BFFF20D8F800104845BE
:1031E0008A6842F001028A602AD144F23230C0F685
:1031F000000000F0ABFB40F2A52008F10804ADF898
:1032000000006946204602224FF0FF33FFF7D8FA4C
:10321000FEF7D6FB6846FEF7A3FBFEF7BDFB029860
:1032200081B2ADF8000020A000F090FB6946204676
:1032300002224FF0FF33FFF7C3FA07B0BDE8F08377
:1032400044F21330C0F6000000F080FB7F208DF8C0
:10325000000008F10800694601224FF0FF33FFF734
:10326000AFFA07B0BDE8F083424C5F444542554792
:103270005F4D53473A626F6F746C6F616465725F44
:1032800068616E646C655F726561645F73656374C9
:103290006F725F70726F74656374696F6E5F737461
:1032A000617475730A000000424C5F444542554703
:1032B0005F4D53473A206E575250207374617475B6
:1032C000733A202523780A0082B040F2C80B40F2FE
:1032D0007805C2F2000BC2F2000505F108080BF1F7
:1032E000010901AF5846C821FDF7F1F8404659469B
:1032F00001224FF0FF33FFF74BF99BF800204046C7
:1033000049464FF0FF33FFF743F99BF8010051386E
:103310000B2800F2B580DFE800F00D89314D09A7D8
:10332000AB6B07AF072D00BFDCE700BF5846FFF7C8
:1033300075FDD7E744F2F730C0F600004C4600F0C8
:1033400005FB9BF800000BEB000151F803ACB0F15A
:10335000030900F04781ABF1010600BF16F8010F29
:103360003946019028460122FEF7CEF9B9F101094C
:10337000F4D138E1FFF7CCFBB4E700BF44F275307D
:10338000C0F6000000F0E2FA9BF800000BEB000131
:1033900051F803ACC61E77D0ABF1010414F8010F4D
:1033A0003946019028460122FEF7AEF9013EF5D1DB
:1033B0006BE000BF44F2A030C0F6000000F0C6FA97
:1033C0009BF800000BEB000151F803ACC61E00F0A7
:1033D0008B80ABF1010400BF14F8010F3946019056
:1033E00028460122FEF790F9013EF5D17DE000BFAD
:1033F00044F27340C0F6000000F0A8FA9BF8000009
:103400000BEB000151F803ACC61E00F09780ABF146
:10341000010400BF14F8010F39460190284601222B
:10342000FEF772F9013EF5D189E000BF44F2CB30DE
:10343000C0F6000000F08AFA9BF800000BEB0001D8
:1034400051F803ACC61E00F0F380ABF1010400BFDD
:1034500014F8010F3946019028460122FEF754F96D
:10346000013EF5D1E5E000BF5846FFF7FFFB39E725
:103470005846FFF79BFD35E7FFF788FE32E700BFB0
:10348000A4A000F063FA2DE7FF20296850458A6860
:1034900042F001028A6040F0EB8044F23230C0F624
:1034A000000000F053FA40F2A520ADF804004046B9
:1034B000394602224FF0FF33FFF782F942F2000053
:1034C000CEF20400016844F254306FF31F31C0F6AD
:1034D00000000A46ADF8021000F038FA40460DF13F
:1034E0000201022210E100BFFF20296850458A68CE
:1034F00042F001028A6040F0BB8044F23230C0F6F4
:10350000000000F023FA40F2A510ADF80400404698
:10351000394602224FF0FF33FFF752F94CF2000018
:10352000C1F6FF700068010A8DF80210C0F3072190
:1035300044F23350C0F600000A4676E0FF202968C6
:1035400050458A6842F001028A6040F0918044F25E
:103550003230C0F6000000F0F9F940F2A510ADF8E5
:1035600004004046394602224FF0FF33FFF728F9A6
:103570009BF803009BF802A0022800F08580012838
:1035800040F0B480FEF71CFA43F60C41C4F202018D
:103590000868C00309D50868C00344BF08685FEA2B
:1035A000C03002D50868C003F2D4886820F000401B
:1035B0008860886820EA0A408860886840F00200D5
:1035C00088600868C00340F18F800868C00344BF6A
:1035D00008685FEAC03040F187800868C003F0D413
:1035E00082E000BFFF20296850458A68A14642F06A
:1035F00001028A603CD144F23230C0F6000000F093
:10360000A5F940F2A510ADF8040040463946022263
:103610004FF0FF33FFF7D4F810208DF8020044F28A
:103620001550C0F600001021102200F08FF967E05D
:10363000FF20296850458A6842F001028A6017D14C
:1036400044F23230C0F6000000F080F940F6A520C8
:10365000ADF804004046394602224FF0FF33FFF731
:10366000AFF840F20C014046C2F200010A224BE0E2
:1036700044F21330C0F6000000F068F97F208DF8A6
:103680000400404639463EE0FEF79AF943F60C4105
:10369000C4F202010868C00309D50868C00344BF2A
:1036A00008685FEAC03002D50868C003F2D48868B1
:1036B00040F000408860886820F47F008860886857
:1036C00040EA0A408860886840F002008860086824
:1036D000C00309D50868C00344BF08685FEAC0306A
:1036E00002D50868C003F2D4FEF760F900208DF817
:1036F000020044F2EE40C0F60000002100F026F97E
:1037000040460DF1020101224FF0FF33FFF758F858
:10371000E8E500BF424C5F44454255475F4D534783
:103720003A496E76616C696420636F6D6D616E6499
:1037300020636F64652072656365697665642066E1
:10374000726F6D20686F7374200A00002DE9F041DC
:1037500086B040F20008C4F20208FEF7BDFAFFF797
:1037600005F9002743F630000597CDE90377CDE949
:1037700001770097C4F202000168002241F00401C1
:1037800001600168202401F0040100910099009774
:10379000016841F080010160016801F08001009141
:1037A00000990097016841F001010160016801F092
:1037B0000101009100990097016841F00201016048
:1037C0000068202100F00200009000984046FEF7BB
:1037D00069FA4FF4005001904FF4041008F50065A9
:1037E00001AECDE9020728463146FEF785F90120F2
:1037F000CDE902074046314601940497FEF77CF973
:1038000040F27806C2F20006A8F5DE31304640F8F4
:10381000081F4FF4E1310C22C0E90117C0E903771A
:10382000C0E90527C761FEF721FE18B172B600BFD7
:10383000FEE700BF08F5405030603046FDF79AFFC4
:1038400010B172B6FEE700BF40F29010A8F5DC316F
:10385000C2F2000000230C274FF4E13280E80E0092
:10386000C0E90333C0E90573C361FEF7FFFD18B17A
:1038700072B600BFFEE700BF28464FF40051FEF7C6
:103880000BFA18B314A000F061F844F22240C0F61D
:10389000000000F05BF848F20005C0F600052C6857
:1038A00044F2A440C0F60000214600F04FF884F333
:1038B00008886C6844F2C240C0F60000214600F05F
:1038C00045F8A047002006B0BDE8F08111A000F047
:1038D0003DF8FFF7F9FC00BF424C5F4445425547B5
:1038E0005F4D53473A427574746F6E206973206E52
:1038F0006F742070726573736564202E2E20657856
:1039000065637574696E6720757365722061707088
:103910000A000000424C5F44454255475F4D534703
:103920003A427574746F6E20697320707265737398
:103930006564202E2E20676F696E6720746F2042A9
:103940004C206D6F64650A0D0000000083B010B557
:1039500095B0844617A801AC0EC017AA2046614650
:103960000092FCF783FD2046FCF792FD82B240F204
:103970009010C2F2000021464FF0FF33FEF720FF07
:1039800015B0BDE8104003B070475FEA400C08BFB7
:1039900091F0000F4FEA8C234FEAC12243EA5151C4
:1039A0004FEA1C5018BF00F5F0404FEA300018BF36
:1039B00041F000415FEA6C5C00F02980BCF1FF3F00
:1039C00008BF40F080407047130C06BF12044FF050
:1039D000100C4FF0000C130E04BF12020CF1080C77
:1039E000130F04BF12010CF1040C930F04BF9200DB
:1039F0000CF1020CD30F04BF52000CF1010C114664
:103A00004FF00002A0F11F00A0EB0C00704711F076
:103A1000004F08BF704731F000413FF4D5AF0B0CA9
:103A200006BF09044FF0100C4FF0000C0B0E04BF42
:103A300009020CF1080C0B0F04BF09010CF1040C76
:103A40008B0F04BF89000CF1020CCB0F04BF49009F
:103A50000CF1010CCCF1200322FA03F341EA03013B
:103A600002FA0CF2A0EB0C0000F10100704700001C
:103A700023F07F4720F07F4C80EA030000F00040F5
:103A8000ACEB070303F57C5303F1FF032DE98049F9
:103A900009B44FEA144324EA03484FEA154B25EAD8
:103AA0000B4E0FF2042606EB13273E7803FB066746
:103AB000C7F5000707FB06F64FEAD64606F10206F1
:103AC0004FEA543707FB066CCCF1005C4FEA1C4709
:103AD0002CEA074C0CFB06F507FB06F404EB154635
:103AE0004FEA961649085FEA320234BF00204FF0D1
:103AF00000404FEAD13706FB07FC4FEA1C4C0CFB99
:103B00000BF7D21B03FB0CF761EB07010CFB0EF765
:103B1000B0EB074072EB17420CFB08F734BFA2EB87
:103B20000742B2EB074261EB17414FEA0C444FEA00
:103B3000910706FB07FC4FEA1C4C0CFB0BF7B0EBA4
:103B4000C74072EB573203FB0CF734BFA2EBC742FE
:103B5000B2EBC74261EB57310CFB0EF7B0EBC7007D
:103B600072EB57720CFB08F734BFA2EBC702B2EB43
:103B7000C70261EB57714FEA816141EA92114FEA46
:103B8000826242EA90124FEA806004EBCC04039F09
:103B90004FEAD13706FB07FC4FEA1C4C0CFB0BF736
:103BA000D21B03FB0CF761EB07010CFB0EF7B0EB2C
:103BB000074072EB17420CFB08F734BFA2EB074239
:103BC000B2EB074261EB17414FEA8C5504EB9C24A2
:103BD0004FEA910706FB07FC4FEA1C4C0CFB0BF766
:103BE000B0EBC74072EB573203FB0CF734BFA2EBCC
:103BF000C742B2EBC74261EB57310CFB0EF7B0EB9B
:103C0000C70072EB57720CFB08F734BFA2EBC70278
:103C1000B2EBC70261EB57714FEA816141EA921141
:103C20004FEA826242EA90124FEA806015EB4C251F
:103C300044F100044FEAD13706FB07FC4FEA1C4C65
:103C40000CFB0BF7D21B03FB0CF761EB07010CFB22
:103C50000EF7B0EB074072EB17420CFB08F734BFCE
:103C6000A2EB0742B2EB074261EB17414FEA813109
:103C700041EA92414FEA823242EA90424FEA803072
:103C80004FEA0C7615EB1C1544F1000448EA034397
:103C90004EEA0B484FF0000EB2EB080C71EB030735
:103CA00024BF624639464EEB0E0E4FF0000B001853
:103CB000524149414BEB0B0BB2EB080C71EB030784
:103CC0007BF1000B24BF624639464EEB0E0E4FF0DF
:103CD000000B0018524149414BEB0B0BB2EB080CA7
:103CE00071EB03077BF1000B24BF624639464EEBB4
:103CF0000E0E51EA020718BF46F0010616EB0E76CB
:103D000055F1000254F1000103D5BDE88901BDE879
:103D10000088BDE88901BDE80048B619524141EB71
:103D20000101A3F10103704780807F7E7D7C7B7A57
:103D30007978777676757473727171706F6E6E6D57
:103D40006C6C6B6A6A6968686766666564646363FD
:103D500062616160605F5F5E5E5D5D5C5C5B5B5A83
:103D60005A595958585757565655555554545353F0
:103D700052525251515050504F4F4F4E4E4D4D4D4B
:103D80004C4C4C4B4B4B4A4A4A4949494848484796
:103D900047474746464645454544444444434343D4
:103DA00043424242424141419C46002B30D477007D
:103DB0002BD04FEA37071CB503B44FF010004FF07B
:103DC0001001BAF1000F06D0BCF1000FDCBF40F0CB
:103DD000080040F008014FF000000FBCBDE81040A3
:103DE0000BF1010BBBF1010F08BF5FEA170722BF00
:103DF00012F1010211F101014FF0004143F1000302
:103E000000F0004043EA00007047F9D35708D0E7BC
:103E100046EA06464FEA164613F1400F1FDD13F13E
:103E2000200FDFBF16430A46002120335B42BED07D
:103E3000C3F1200746EA06464FEA164602FA07F79C
:103E400046EA070622FA03F2C3F1200701FA07F750
:103E500042EA070221FA03F14FF00003A7E746EA1E
:103E6000020646EA06464FEA164646EA0106BCBF87
:103E700046EA0646360C4FF000034FF000024FF0C2
:103E8000000194E72DE9804C70B49A46934691E87E
:103E9000380007C831EA400C48BF34EA430C03D568
:103EA000FFF7E6FDFFF780FFF0BCBDE8008C2DE9D1
:103EB000804C70B49A46934691E8380007C810F0D9
:103EC000804F08BF13F0804F03D100F005F8FFF7D3
:103ED0006BFFF0BCBDE8008C20F07F4723F07F4CE7
:103EE00080EA030000F0004007EB0C03A3F57C53CD
:103EF000A3F1FE0392F0000F00F0B38095F0000FE5
:103F000000F077802DE901494FEA114021EA00488D
:103F10004FEA144624EA064700FB06FC08FB06F6B7
:103F200007FB08F818EB06484CEB164C00FB07F7AC
:103F300018EB07484CEB17404FEA124B22EA0B4EA6
:103F40004FEA154625EA06470BFB06FC0EFB06F674
:103F500007FB0EFE1EEB064E4CEB164C0BFB07F759
:103F60001EEB074E4CEB174B18EB0B0840F1000013
:103F700018EB0E0B58EB000840F100008F1A4FF0C1
:103F800000014FF000063CBFC943661B14BFB5EBF0
:103F9000040C00213CBFC943F61B4FEA174427EA33
:103FA00004454FEA1C472CEA074C04FB076205FB5B
:103FB00007F70CFB05F616EB074642EB174204FB2E
:103FC0000CFC16EB0C4642EB1C421BEB060658EBB6
:103FD000020241414EEA8E0E46EA9E0601D5BDE838
:103FE0000189B619524141EB0101A3F10103BDE87A
:103FF00001894FEA144524EA05464FEA114721EAB0
:10400000074C05FB07F406FB07F70CFB06F111EB69
:10401000074144EB174405FB0CFC11EB0C4144EB4E
:104020001C444FEA124722EA074C05FB07F206FB45
:1040300007F70CFB06F616EB074642EB174205FBAB
:104040000CFC16EB0C4642EB1C456A1854F10001BF
:1040500048BF7047B619524141EB0101A3F101037A
:10406000704795F0000F37D04FEA114221EA02461F
:104070004FEA144724EA074C02FB07F106FB07F757
:104080000CFB06F414EB074441EB174102FB0CFC5C
:1040900014EB0C4441EB1C414FEA154725EA074C51
:1040A00002FB07F506FB07F70CFB06F616EB0746C7
:1040B00045EB174502FB0CFC16EB0C4645EB1C428E
:1040C000121951F1000148BF7047B619524141EB36
:1040D0000101A3F1010370474FEA144524EA0546A4
:1040E0004FEA114721EA074C05FB07F106FB07F7EA
:1040F0000CFB06F212EB074241EB174105FB0CFCEF
:1041000012EB0C4251EB1C414FF0000648BF7047C8
:10411000921841EB0101A3F10103704703B4019828
:104120004100009850EAC12018BF04204A0D18BF72
:1041300040F0010040F2FF72B2EB515F08BF40F067
:104140000200012808BF052002B0704730380A2855
:1041500001D20120704700207047000010B50029EF
:104160000AD00878002807D005487844FDF7F8F908
:10417000002801D0002010BD0248784410BD000086
:104180000A0400000204000010B500290AD00878D3
:10419000002807D005487844FDF7E2F9002801D04F
:1041A000002010BD0248784410BD0000FA03000052
:1041B000F2030000F1EE100A4FF6FF71C0F2C031B9
:1041C00020EA010040F04070E1EE100A7047FCF771
:1041D000D1BDFCF705BF000000000000000000009A
:1041E000303132333435363738394142434445462D
:1041F0004030580030313233343536373839616227
:104200006364656640307800040000080000000028
:104210000000000200010000103031323334353626
:1042200037383961626364656678700030313233E3
:1042300034353637383941424344454658500000FA
:1042400002400000000000A0000000000540000047
:10425000000000C8000000000C4000000000409C6E
:1042600000000000194000000020BCBE000000005B
:1042700034400000BFC91B8E00000004B5400000A0
:10428000504BCFD06607E2CF010000006C41000028
:104290003E8251AADFEEA73401000000D94200009F
:1042A000DCB5A0E23A301F97FFFFFFFFB4450000E6
:1042B000FD25A0C8E9A3C14FFFFFFFFFFF3F00009E
:1042C0000000008000000000FF3F000000000080B0
:1042D00000000000000000000000000001020304D4
:1042E000060708090000000001020304424C5F4475
:1042F000454255475F4D53473A206A756D70696E68
:104300006720746F20676F20616464726573732126
:10431000200A00424C5F44454255475F4D53473A9F
:10432000636865636B73756D206661696C2021211C
:104330000A00424C5F44454255475F4D53473A633C
:104340006865636B73756D20737563636573732044
:1043500021210A00424C5F44454255475F4D534777
:104360003A4D4355206964203A202564202523785E
:104370002021210A00424C5F44454255475F4D537E
:10438000473A626F6F746C6F616465725F68616EEB
:10439000646C655F6765746369645F636D640A007C
:1043A000424C5F44454255475F4D53473A626F6FF9
:1043B000746C6F616465725F68616E646C655F6781
:1043C00065747264705F636D640A00424C5F4445BB
:1043D0004255475F4D53473A626F6F746C6F61642B
:1043E00065725F68616E646C655F67657468656C53
:1043F000705F636D640A00424C5F44454255475FFD
:104400004D53473A626F6F746C6F616465725F6899
:10441000616E646C655F6765747665725F636D6419
:104420000A00424C5F44454255475F4D53473A624C
:104430006F6F746C6F616465725F6A756D705F74C5
:104440006F5F757365725F6170700A00424C5F4404
:10445000454255475F4D53473A2076616C69642069
:104460006D656D207772697465206164647265732F
:10447000730A00424C5F44454255475F4D53473AEB
:10448000626F6F746C6F616465725F68616E646C9B
:10449000655F656E6469735F72775F70726F746574
:1044A00063740A00424C5F44454255475F4D534791
:1044B0003A4D53502076616C7565203A202523785B
:1044C0000A00424C5F44454255475F4D53473A20EE
:1044D0006170702072657365742068616E646C65CC
:1044E000722061646472203A202523780A00424CCD
:1044F0005F44454255475F4D53473A20666C6173B0
:1045000068206572617365207374617475733A20F5
:104510002523780A00424C5F44454255475F4D537E
:10452000473A424C5F564552203A202564202523C5
:10453000780A00424C5F44454255475F4D53473A25
:10454000524450206C6576656C3A20256420252302
:10455000780A0000A04600080000002018000000B3
:1045600028020008B846000818000020E8070000EC
:10457000480200081C00000043000000F8FFFFFF95
:104580000C0000000E0000000F0000002E000000D4
:104590001001000043000000F8FFFFFF0040404012
:1045A0004040404040404141414141404040404006
:1045B00040404040404040404040404040050202B2
:1045C0000202020202020202020202020220202071
:1045D00020202020202020020202020202029090CD
:1045E00090909090101010101010101010101010CB
:1045F000101010101010101002020202020288881F
:10460000888888880808080808080808080808082A
:104610000808080808080808020202024000000012
:10462000000000000000000000000000000000008A
:10463000000000000000000000000000000000007A
:10464000000000000000000000000000000000006A
:10465000000000000000000000000000000000005A
:10466000000000000000000000000000000000004A
:10467000000000000000000000000000000000003A
:10468000000000000000000000000000000000002A
:10469000000000000000000000000000000000001A
:1046A00001000000100000000024F4005152535497
:0846B0005556575A585C0000F2
:04000005080001C529
:00000001FF
